:020000040000FA
:040000000DEF00F010
:020008001000E6
:0800180010009368966A956AD6
:1000200094948294836AF46A8480F46E81B0FED7DB
:100030000A0EF36EF3CF83FF85EC00F0F406F32E87
:10004000F9D7000E836E85EC00F00A0EF36EF3CF45
:1000500083FF85EC00F0F406F32EF9D7000E836ED3
:1000600085EC00F00A0EF36EF3CF83FF85EC00F011
:10007000F406F32EF9D7000E836E85EC00F0F46AD7
:10008000836A82687FEC00F085EC00F0826A82EC83
:1000900000F085EC00F082687FEC00F085EC00F069
:1000A000826A82EC00F085EC00F082687FEC00F060
:1000B00085EC00F0826A82EC00F085EC00F082684A
:1000C0007FEC00F085EC00F0826A82EC00F085ECB9
:1000D00000F082687FEC00F085EC00F0826A82EC30
:1000E00000F085EC00F082687FEC00F085EC00F019
:1000F000826A82EC00F085EC00F098D70000FF0ED9
:10010000836E1200000E836E1200500E016EFA0E06
:10011000006E000000000000000000000000000071
:1001200000000000000000000000000000000000CF
:1001300000000000000000000000000000000000BF
:1001400000000000000000000000000000000000AF
:10015000000000000000000000000000000000009F
:10016000000000000000000000000000000000008F
:10017000000000000000000000000000000000007F
:10018000000000000000000000000000000000006F
:10019000000000000000000000000000000000005F
:1001A000000000000000000000000000000000004F
:1001B000000000000000000000000000000000003F
:1001C000000000000000000000000000000000002F
:1001D000000000000000000000000000000000001F
:1001E000000000000000000000000000000000000F
:1001F00000000000000000000000000000000000FF
:1002000000000000000000000000000000000000EE
:1002100000000000000000000000000000000000DE
:1002200000000000000000000000000000000000CE
:1002300000000000000000000000000000000000BE
:1002400000000000000000000000000000000000AE
:10025000000000000000000000000000000000009E
:10026000000000000000000000000000000000008E
:10027000000000000000000000000000000000007E
:10028000000000000000000000000000000000006E
:10029000000000000000000000000000000000005E
:1002A000000000000000000000000000000000004E
:1002B000000000000000000000000000000000003E
:1002C000000000000000000000000000000000002E
:1002D000000000000000000000000000000000001E
:1002E000000000000000000000000000000000000E
:1002F00000000000000000000000000000000000FE
:0C030000002E07D7012E03D700001200CA
:00000001FF
